:100000000C942A000C9442020C9467020C94470052
:100010000C9447000C9447000C9447000C94470044
:100020000C9447000C9447000C9447000C948C02ED
:100030000C9447000C9447000C9447000C94470024
:100040000C9447000C9447000C9447000C94470014
:100050000C94470011241FBECFE5D4E0DEBFCDBF16
:1000600010E0A0E6B0E0EEE2FBE102C005900D92E8
:10007000A036B107D9F711E0A0E6B0E001C01D92AB
:10008000A130B107E1F70E942A0C0C94950D0C9455
:1000900000005D9BFECF8CB9089583B3886085BB5B
:1000A000089583B3877F85BB089583E397E0019725
:1000B000F1F7A898A99880E385BBAA9AEFEFF3E23D
:1000C0003197F1F700C00000AA98E3E3F7E0319719
:1000D000F1F7A898A99885BBAA9AEFEFF3E23197B8
:1000E000F1F700C00000AA98E3E3F7E03197F1F7D9
:1000F000A898A99885BBAA9A8FEF93E20197F1F788
:1001000000C00000AA98E3E3F7E03197F1F7A89860
:10011000A99880E285BBAA9A8FEF93E20197F1F745
:1001200000C00000AA98089595B39F7095BB95B341
:10013000282F207F922B95BBA898A998AA9AEFEF19
:10014000F3E23197F1F700C00000AA9895B39F70D1
:1001500095BB95B38295807F892B85BBA898A9987C
:10016000AA9A8FEF93E20197F1F700C00000AA98D6
:10017000089583E397E00197F1F788E20E949400E5
:1001800081E00E94940086E00E9494008EE00E942C
:10019000940080E80E949400089595B39F7095BBE9
:1001A00095B3282F207F922B95BBA89AA998AA9A3D
:1001B000EFEFF3E23197F1F700C00000AA9895B392
:1001C0009F7095BB95B38295807F892B85BBA89A3C
:1001D000A998AA9A8FEF93E20197F1F700C0000067
:1001E000AA98089580E80E9494000895CF93DF9321
:1001F000EC018881882331F021960E94CD008991FD
:100200008823D9F7DF91CF910895823079F0833038
:1002100018F48130C9F405C0833069F08430A1F44A
:100220000FC0862F81580E9494000895862F815414
:100230000E9494000895862F8D560E949400089580
:10024000862F8D520E94940008950F931F93CF9391
:10025000DF938A01E901882311F0662319F40E94D3
:10026000F20002C00E940501C530D10571F4C80139
:1002700060E177E20E94810DCB01C09690939100DE
:10028000809390000E94CD0003C0C430D105B9F422
:10029000C80168EE73E00E94810DCB01709393005A
:1002A000609392006AE070E00E94810DC096909386
:1002B00000018093FF000E94CD0081E001C080E03A
:1002C000C330D10511F08130B1F4C80164E670E0AB
:1002D0000E94810DCB0170939300609392006AE0BD
:1002E00070E00E94810DC0969093EC008093EB002B
:1002F0000E94CD0081E0C230D10511F08130B1F40F
:100300002AE030E0C801B9010E94810DCB01709351
:10031000930060939200B9010E94810DC096909362
:10032000D5008093D4000E94CD0081E0C130D1057A
:1003300011F0813061F4C8016AE070E00E94810D23
:10034000C0969093F0008093EF000E94CD00C630DD
:10035000D1051CF085E40E94CD00DF91CF911F9163
:100360000F91089581B38F6B81BB969A84B38FEF01
:1003700084BB85B385BB0895F8948FB58FBD8EB5CA
:10038000816C8EBD8CB59DB59DBD8CBD88B718BEEA
:1003900089B7806289BF789408951ABA1BBA089504
:1003A00087B38F6087BB88B3807F88BB81B380634E
:1003B00081BB82B3806382BB08951EBC8FEF8DBD6D
:1003C00091E09CBD1BBC8ABD19BC88BD81EA8FBD74
:1003D0008DE08EBD089516B880E287B980E888B9AF
:1003E00086E886B908951AB81BB886E880BD8FE202
:1003F00089B910BC88E98AB908958770806287B985
:10040000369A349BFECF85B1349A0895CF93DF930B
:10041000D82FC62F842F0E94FD01482F8093CD0036
:100420008D2F6C2F50E023E030E00E942501DF91FA
:10043000CF9108951BBC8ABD19BC68BD08958B98E7
:10044000939A08958A98929A08950E94CD010E94E5
:10045000B2010E94D0010E941F020E942202089550
:10046000F89485B7886085BF8BB780688BBF789418
:100470000895F89485B7826085BF8BB780648BBF81
:10048000789408951F920F920FB60F9211248F93B4
:100490009F93AF93BF938091730090917400A0914C
:1004A0007500B09176000196A11DB11D8093730077
:1004B00090937400A0937500B0937600BF91AF91B4
:1004C0009F918F910F900FBE0F901F9018951F92C4
:1004D0000F920FB60F9211248F939F93AF93BF93F8
:1004E0008091770090917800A0917900B0917A0086
:1004F0000196A11DB11D8093770090937800A09381
:100500007900B0937A00BF91AF919F918F910F9036
:100510000FBE0F901F9018951F920F920FB60F925B
:1005200011242F938F939F93EF93FF938CB190E0BF
:1005300090936E0080936D0080916D0090916E009D
:100540009093700080936F00809171009091720081
:100550008336910531F481E090E09093C10080935F
:10056000C00080917100909172008936910531F43C
:1005700082E090E09093EE008093ED008091710016
:10058000909172008A36910531F483E090E0909367
:10059000D1008093D00080917100909172008533DA
:1005A0009105B9F4E0916B00F0916C0080916D00C1
:1005B00090916E00EE0FFF1FEC56FF4F91838083EA
:1005C00080916B0090916C00019690936C008093E9
:1005D0006B0080917100909172008635910589F4CD
:1005E0002091680080916D0090916E00E22FF0E004
:1005F000EE0FFF1FEE57FF4F918380832F5F2093F5
:10060000680080916D0090916E00909372008093CD
:100610007100FF91EF919F918F912F910F900FBEDD
:100620000F901F90189598B3907F8F70982B98BB60
:10063000089586E00E941303089589E00E94130341
:10064000089585E00E94130308958AE00E94130331
:10065000089580E00E94130308950F931F93CF9392
:10066000BC0180E090E00E94F30C2AE939E94DE4F6
:1006700051E40E945F0C0E94C70CDC01CB01A0E09A
:10068000B0E01092730010927400109275001092F6
:1006900076001092770010927800109279001092F4
:1006A0007A00F1E0C0E040917300509174006091D5
:1006B000750070917600009177001091780020917C
:1006C000790030917A00EF2F481759076A077B07A6
:1006D00008F4EC2FEE2349F44F2F081719072A07C7
:1006E0003B0708F44C2F4423F1F20E942903CF91D9
:1006F0001F910F910895CF92DF92EF92FF92CF93C7
:10070000BC0180E090E00E94F30C22E538EB4EE45F
:1007100051E40E945F0C0E94C70CC62ED72EE82E13
:10072000F92E1092730010927400109275001092BE
:100730007600C1E01092670084E00E94FD018131E3
:1007400048F0C09367000E9419038FEF6FEF0E947B
:100750001A0237C083E00E94FD018031B8F485E0C1
:100760000E94FD018A3028F484E00E94FD018A3055
:1007700068F080916700882349F4C09367000E9465
:10078000190388EC68E70E941A021BC085E00E94EA
:10079000FD018031B0F483E00E94FD018A3028F42D
:1007A00084E00E94FD018A3060F080916700882318
:1007B00041F4C09367000E94190388E768EC0E9427
:1007C0001A028091730090917400A0917500B0910D
:1007D0007600C816D906EA06FB0608F0ABCF0E94E1
:1007E0002903CF91FF90EF90DF90CF900895CF93A2
:1007F000DF93EC010E941903CE010E947B03DF917D
:10080000CF910895CF93DF93EC010E941D03CE0199
:100810000E947B03DF91CF910895CF93DF93EC018A
:100820000E942103CE010E942D03DF91CF910895F4
:10083000CF93DF93EC010E942503CE010E942D038C
:10084000DF91CF910895F8940E9425020E94EB0158
:100850000E94F3010E94DD010E94BC010E9430024F
:100860000E94390278940895CF93C1E010926700F6
:1008700084E00E94FD018D3048F0C09367000E9423
:1008800019038FEF6FEF0E941A0237C083E00E94B6
:10089000FD018C30B8F485E00E94FD018A3028F417
:1008A00084E00E94FD018A3068F08091670088230F
:1008B00049F4C09367000E94190388EC68E70E941E
:1008C0001A021BC085E00E94FD018C30B0F483E069
:1008D0000E94FD018A3028F484E00E94FD018A30E4
:1008E00060F080916700882341F4C09367000E9404
:1008F000190388E768EC0E941A0283E00E94FD0158
:10090000813528F084E00E94FD01813560F485E0A6
:100910000E94FD01813508F4A9CF84E00E94FD0109
:10092000813508F4A3CF0E944D008FEF9FE3A2E032
:1009300081509040A040E1F700C000000E945100AB
:100940000E9419038FEF9FE3A2E081509040A040E6
:10095000E1F700C00000CF910895CF93DF9300D05E
:10096000CDB7DEB75A834983242F352F2130310587
:1009700009F08AC09C012F5F3F4F2617370701F50A
:100980008AE590E00E94180482E090E09A838983CF
:100990000E9429038FEF9FE3ABE081509040A0407D
:1009A000E1F700C0000081E06EE042E050E023E0AB
:1009B00030E00E9425010E9434040E9429030AC2EB
:1009C0009C01215030402617370701F58AE590E059
:1009D0000E940D0484E090E09A8389830E94290399
:1009E0008FEF9FE3ABE081509040A040E1F700C063
:1009F000000081E06EE044E050E023E030E00E943F
:100A000025010E9434040E942903E4C19C0127505F
:100A100030402617370799F40E94190381E090E0CF
:100A20009A83898381E06EE041E050E023E030E08A
:100A30000E9425010E9434040E942903CBC107961D
:100A40008617970709F0C6C184EB90E00E9418044E
:100A500083E090E09A8389830E9429038FEF9FE3CC
:100A6000ABE081509040A040E1F700C0000081E081
:100A70006EE043E050E023E030E00E9425010E9458
:100A800034040E942903A6C12230310509F08AC02E
:100A90009C01295F3F4F2617370701F58AE590E053
:100AA0000E94180483E090E09A8389830E942903BE
:100AB0008FEF9FE3ABE081509040A040E1F700C092
:100AC000000081E06EE043E050E023E030E00E946F
:100AD00025010E9434040E9429037CC19C012750F7
:100AE00030402617370701F58AE590E00E940D0493
:100AF00081E090E09A8389830E9429038FEF9FE32E
:100B0000ABE081509040A040E1F700C0000081E0E0
:100B10006EE041E050E023E030E00E9425010E94B9
:100B200034040E94290356C19C012F5F3F4F2617B2
:100B3000370799F40E94190382E090E09A83898331
:100B400081E06EE042E050E023E030E00E942501C9
:100B50000E9434040E9429033DC10197861797071C
:100B600009F038C184EB90E00E94180484E090E022
:100B70009A8389830E9429038FEF9FE3ABE0815022
:100B80009040A040E1F700C0000081E06EE044E04A
:100B900050E023E030E00E9425010E9434040E94CE
:100BA000290318C12330310509F088C09C01215068
:100BB000304026173707F1F48AE590E00E941804C8
:100BC00084E090E09A8389830E9429038FEF9FE35A
:100BD000ABE081509040A040E1F700C0000081E010
:100BE0006EE044E050E023E030E00E9425010E94E6
:100BF0003404F0C09C012F5F3F4F2617370701F5E3
:100C00008AE590E00E940D0482E090E09A83898357
:100C10000E9429038FEF9FE3ABE081509040A040FA
:100C2000E1F700C0000081E06EE042E050E023E028
:100C300030E00E9425010E9434040E942903CAC0AA
:100C40009C01295F3F4F2617370799F40E9419032B
:100C500083E090E09A83898381E06EE043E050E096
:100C600023E030E00E9425010E9434040E94290301
:100C7000B1C007978617970709F0ACC084EB90E0E6
:100C80000E940D0481E090E09A8389830E942903E9
:100C90008FEF9FE3ABE081509040A040E1F700C0B0
:100CA000000081E06EE041E050E023E030E00E948F
:100CB00025010E9434040E9429038CC02430310590
:100CC00009F088C09C01295F3F4F2617370701F5BF
:100CD0008AE590E00E940D0483E090E09A83898386
:100CE0000E9429038FEF9FE3ABE081509040A0402A
:100CF000E1F700C0000081E06EE043E050E023E057
:100D000030E00E9425010E9434040E94290362C041
:100D10009C01275030402617370701F58AE590E0FF
:100D20000E94180481E090E09A8389830E9429033D
:100D30008FEF9FE3ABE081509040A040E1F700C00F
:100D4000000081E06EE041E050E023E030E00E94EE
:100D500025010E9434040E9429033CC09C012150BB
:100D600030402617370799F40E94190384E090E079
:100D70009A83898381E06EE044E050E023E030E034
:100D80000E9425010E9434040E94290323C0019679
:100D900086179707F9F484EB90E00E940D0482E037
:100DA00090E09A8389830E9429038FEF9FE3ABE051
:100DB00081509040A040E1F700C0000081E06EE06B
:100DC00042E050E023E030E00E9425010E9434041C
:100DD0000E942903CE0101969093CF008093CE000C
:100DE00089819A810F900F90DF91CF910895813082
:100DF000910519F40E94290338C08230910581F4CD
:100E00008AE590E00E940D040E9429038FEF9FE382
:100E1000A2E081509040A040E1F700C0000025C052
:100E20008330910581F484EB90E00E940D040E94D0
:100E300029038FEF9FE3A2E081509040A040E1F7AB
:100E400000C0000012C08430910579F48AE590E07A
:100E50000E9418040E9429038FEF9FE3A2E08150B3
:100E60009040A040E1F700C0000081E090E00895CC
:100E70008130910581F48AE590E00E9418040E9477
:100E800029038FEF9FE3A2E081509040A040E1F75B
:100E900000C000002BC08230910519F40E94290384
:100EA00025C08330910581F48AE590E00E940D040D
:100EB0000E9429038FEF9FE3A2E081509040A04061
:100EC000E1F700C0000012C08430910579F484EB92
:100ED00090E00E940D040E9429038FEF9FE3A2E09F
:100EE00081509040A040E1F700C0000082E090E017
:100EF00008958130910581F484EB90E00E940D0407
:100F00000E9429038FEF9FE3A2E081509040A04010
:100F1000E1F700C000002BC08230910581F48AE522
:100F200090E00E9418040E9429038FEF9FE3A2E043
:100F300081509040A040E1F700C0000018C083300D
:100F4000910519F40E94290312C08430910579F4A7
:100F50008AE590E00E940D040E9429038FEF9FE331
:100F6000A2E081509040A040E1F700C0000083E083
:100F700090E00895CF93DF9300D0CDB7DEB786170A
:100F8000970748F081E080937B00CB010197863082
:100F9000910550F00CC083E080937B00CB0101975A
:100FA0008630910570F54EC0CB01079622C0CB016B
:100FB00007978630910518F4CB0108961AC0CB012B
:100FC0000D978630910518F4CB01099612C0CB011C
:100FD00043978630910518F4CB010A960AC0CB01DD
:100FE00049978630910518F4CB010B9602C0CB01CE
:100FF0000C969E012F5F3F4F3093CF002093CE0081
:1010000021C0CB01079786309105D8F0CB010D9711
:101010008630910518F4CB01019614C0CB0143979B
:101020008630910518F4CB0102960CC0CB0149978C
:101030008630910518F4CB01039604C0CB010496C9
:1010400001C0CB010F900F90DF91CF910895AF9227
:10105000BF92CF92DF92EF92FF920F931F93CF93A5
:10106000DF930F2EF2ECEF2EF0E0FF2EF02D0F2E7F
:10107000F4EECF2EF0E0DF2EF02DC7010796D6015B
:10108000F7012FEF21932D93E817F907D9F7609116
:101090008200709183008FEF6F3F780781F104E841
:1010A00010E0C0E0D0E083E090E00F2EF3E0AF2E40
:1010B000BB24F02D08C0209729F0F80134978081D7
:1010C000918101C0C5010E94BA07D7018D937D01AE
:1010D00080917B00F60181936F018FEF9FE7A6E17E
:1010E00081509040A040E1F700C000002196D80157
:1010F0006D917D918D01BFEF6F3F7B07E1F6DF9131
:10110000CF911F910F91FF90EF90DF90CF90BF9004
:10111000AF900895CF92DF92EF92FF920F931F93BB
:10112000CF93DF93F82EE92E80E090E024E930E0C1
:1011300047E550E0FC01EE0FFF1FE20FF31F518364
:101140004083019684319105A9F710926C001092AA
:101150006B0080916F00909170008233910541F097
:101160008BB180916F009091700082339105C1F72F
:1011700080919400909195008735910529F1C0E008
:10118000D0E00F2EF4E9CF2EF0E0DF2EF02DFE019F
:10119000EE0FFF1FEC0DFD1D8081918121969E01B8
:1011A000220F331F8601020F131FD8016D917C910E
:1011B0004F2D5E2D0E94AD04F82EE92EF80180819E
:1011C00091818735910519F78091C0009091C100F8
:1011D0008130910561F51092C1001092C00080919C
:1011E0006F00909170008D35910559F08DE590E07C
:1011F0000E94490080916F00909170008D3591059B
:10120000A9F780916F00909170008A359105C9F718
:1012100080916F00909170008B359105C9F7F2E0D5
:10122000FA95F1F700C085E690E00E9449008091B0
:10123000ED009091EE0082309105F9F41092EE00ED
:101240001092ED0080916F00909170008D359105A6
:10125000C9F78FEF9FE9A5E081509040A040E1F7EA
:1012600000C000008BE590E00E94490080916F0073
:101270009091700085369105C9F78091D0009091CA
:10128000D10083309105F9F41092D1001092D00072
:1012900080916F00909170008A359105C9F78FEFAA
:1012A0009FE9A5E081509040A040E1F700C0000018
:1012B0008BE590E00E94490080916F009091700052
:1012C00085369105C9F78FEF9FE7A6E181509040E1
:1012D000A040E1F700C000008F2D9E2DDF91CF913F
:1012E0001F910F91FF90EF90DF90CF90089585B3FD
:1012F000807B85BB85B3807785BB0895AE9AAF9A16
:10130000089585B3807B85BBAF9A0895AE9A85B367
:10131000807785BB0895AC9AAD9A08950E947709AD
:1013200010926000109261001092620010926300AF
:101330008FEF9FE3A2E081509040A040E1F700C012
:1013400000008091600090916100A0916200B091D6
:1013500063008093C9009093CA00A093CB00B09320
:10136000CC004091C9005091CA006091CB007091AF
:10137000CC00842F952F08950E947E091092600062
:101380001092610010926200109263008FEF9FE351
:10139000A2E081509040A040E1F700C000008091A1
:1013A000600090916100A0916200B0916300809311
:1013B000BC009093BD00A093BE00B093BF004091CD
:1013C000BC005091BD006091BE007091BF00842FA1
:1013D000952F08950E94810910926000109261007B
:1013E00010926200109263008FEF9FE3A2E08150A1
:1013F0009040A040E1F700C0000080916000909113
:101400006100A0916200B091630080937C00909392
:101410007D00A0937E00B0937F0040917C005091AE
:101420007D0060917E0070917F00842F952F08953C
:1014300010926700109272001092710084E00E9476
:10144000FD018D3050F081E0809367000E94190308
:101450008FEF6FEF0E941A0239C083E00E94FD01F6
:101460008C30C0F485E00E94FD018A3028F484E0CD
:101470000E94FD018A3070F080916700882351F44A
:1014800081E0809367000E94190388EC68E70E945E
:101490001A021CC085E00E94FD018C30B8F483E084
:1014A0000E94FD018A3028F484E00E94FD018A3008
:1014B00068F080916700882349F481E08093670099
:1014C0000E94190388E768EC0E941A0283E00E94D8
:1014D000FD01813528F084E00E94FD01813550F442
:1014E00085E00E94FD01813570F184E00E94FD01DC
:1014F000813548F181E090E0909372008093710013
:101500000E944D008FEF9FE3A2E081509040A040E9
:10151000E1F700C000000E9451000E9419038FEF04
:101520009FEFAAE181509040A040E1F700C0000089
:101530000E9429038FEF9FE3A2E081509040A040DA
:10154000E1F700C000000895CF93DF93E2E8F0E0F8
:10155000A6EDB0E0C1EFD0E0CF010E962FEF3FEF48
:10156000219331932D933D9329933993E817F907EC
:10157000B9F7DF91CF9108952F923F924F925F92EA
:101580006F927F928F929F92AF92BF92CF92DF9293
:10159000EF92FF920F931F93CF93DF930E94A40AC1
:1015A0000E948B090F2EF3E28F2E9924F02DCC246C
:1015B000DD2400E010E0AA24BB2466247724639491
:1015C0000F2EF6ED2F2EF0E03F2EF02D4424552463
:1015D00087E00E94FD01C82FD0E0C536D10508F490
:1015E0008DC00130110519F40E94180A81C00E94B3
:1015F00029030E944D002FEF3FE342E0215030408D
:101600004040E1F700C000000E9451000E948E0996
:101610007C018FEF9FE3ABE081509040A040E1F769
:1016200000C000000E94BC098C012FEF3FE34BE09B
:10163000215030404040E1F700C000000E94EA091C
:101640002FEF3FE34BE0215030404040E1F700C036
:1016500000000E151F05E8F48E159F05D0F4A89A1A
:101660008FEF9FE7A0E781509040A040E1F700C0D6
:10167000000020916800822F90E0880F991F8E57FC
:101680009F4FDC0111969C928E922F5F20936800F1
:101690002CC0E016F106A0F48017910788F4A99AEF
:1016A0002FEF3FE740E7215030404040E1F700C0D6
:1016B0000000CC0FDD1FCF50DF4F9982888215C00C
:1016C000AA9A8FEF9FE7A0E781509040A040E1F7F2
:1016D00000C00000C501880F991F820D931DDC0119
:1016E0008D929C920894A11CB11C85B3807385BB1C
:1016F00080E590E00E94F703830103C00E94180A6E
:10170000820180917100909172008130910509F001
:101710005FCF0894C11CD11C50927200409271009E
:10172000B6E0CB16D10428F4EAEFFFEF8E0E9F1E31
:101730001FC0F6E0CF16D10499F484EB90E00E942C
:101740000D040E9429032FEF3FE34BE0215030406E
:101750004040E1F700C000000894811C911C38CF84
:1017600037E0C316D10420F046E050E0840E951E09
:101770005CE0C516D10409F02BCF0E9429038091AB
:101780006F00909170008135910541F08BB180918F
:101790006F009091700081359105C1F709E410E068
:1017A00082E590E0F801099580916F0090917000BA
:1017B0008435910541F08BB180916F00909170005C
:1017C00084359105C1F78091D6009091D700AFEF95
:1017D0008F3F9A0781F0C6EDD0E085E590E0F801F3
:1017E000099589919991F801099588819981BFEFAF
:1017F0008F3F9B0791F78091F1009091F200EFEFFE
:101800008F3F9E0781F0C1EFD0E087E590E0F801BF
:10181000099589919991F801099588819981FFEF3E
:101820008F3F9F0791F788E590E0F8010995DF91D8
:10183000CF911F910F91FF90EF90DF90CF90BF90CD
:10184000AF909F908F907F906F905F904F903F9060
:101850002F9008950E94230482E090E00E948A085D
:101860000E94BC0A0E94270880916800E2ECF0E028
:10187000E80FF11D87E0808380916F0090917000E8
:101880008833910541F08BB180916F009091700089
:1018900088339105C1F7C2ECD0E087E390E00E9465
:1018A00049008FEF9FE3A2E081509040A040E1F714
:1018B00000C00000899190E00E944900EECF0CD05A
:1018C000E6C0DED040F0D5D030F021F45F3F19F013
:1018D000C7C0511110C1CAC0EBD098F39923C9F306
:1018E0005523B1F3951B550BBB27AA276217730726
:1018F000840738F09F5F5F4F220F331F441FAA1FDA
:10190000A9F333D00E2E3AF0E0E830D09150504099
:10191000E695001CCAF729D0FE2F27D0660F771F47
:10192000881FBB1F261737074807AB07B0E809F029
:10193000BB0B802DBF01FF2793585F4F2AF09E3FBE
:10194000510568F08DC0D7C05F3FECF3983EDCF3E3
:10195000869577956795B795F7959F5FC9F7880F37
:10196000911D9695879597F90895E1E0660F771F89
:10197000881FBB1F621773078407BA0720F0621B1A
:10198000730B840BBA0BEE1F88F7E095089598D07F
:1019900088F09F5790F0B92F9927B751A0F0D1F058
:1019A000660F771F881F991F1AF0BA95C9F712C0E2
:1019B000B13081F09FD0B1E008959CC0672F782F9F
:1019C0008827B85F39F0B93FCCF38695779567954E
:1019D000B395D9F73EF490958095709561957F4FBA
:1019E0008F4F9F4F0895E89409C097FB3EF4909560
:1019F0008095709561957F4F8F4F9F4F9923A9F0E8
:101A0000F92F96E9BB279395F69587957795679576
:101A1000B795F111F8CFFAF4BB0F11F460FF1BC0BA
:101A20006F5F7F4F8F4F9F4F16C0882311F096E94D
:101A300011C0772321F09EE8872F762F05C06623FB
:101A400071F096E8862F70E060E02AF09A95660FB4
:101A5000771F881FDAF7880F9695879597F908956D
:101A600097F99F6780E870E060E008959FEF80EC51
:101A7000089500240A9416161706180609060895F4
:101A800000240A9412161306140605060895092E5A
:101A90000394000C11F4882352F0BB0F40F4BF2BC9
:101AA00011F460FF04C06F5F7F4F8F4F9F4F089509
:101AB00057FD9058440F551F59F05F3F71F04795FF
:101AC000880F97FB991F61F09F3F79F087950895E4
:101AD000121613061406551FF2CF4695F1DF08C003
:101AE000161617061806991FF1CF86957105610520
:101AF00008940895E894BB2766277727CB0197F9C8
:101B00000895AA1BBB1B51E107C0AA1FBB1FA61744
:101B1000B70710F0A61BB70B881F991F5A95A9F796
:0E1B200080959095BC01CD010895F894FFCFFB
:00000001FF
